{
  "contractName": "DappToken",
  "abi": [
    {
      "constant": true,
      "inputs": [],
      "name": "totalSupply",
      "outputs": [
        {
          "name": "",
          "type": "uint256"
        }
      ],
      "payable": false,
      "stateMutability": "view",
      "type": "function"
    },
    {
      "inputs": [],
      "payable": false,
      "stateMutability": "nonpayable",
      "type": "constructor"
    }
  ],
  "bytecode": "0x608060405234801561001057600080fd5b50620f4240600081905550609e806100296000396000f300608060405260043610603f576000357c0100000000000000000000000000000000000000000000000000000000900463ffffffff16806318160ddd146044575b600080fd5b348015604f57600080fd5b506056606c565b6040518082815260200191505060405180910390f35b600054815600a165627a7a723058206cbff28449e70eee6e6ee3a909205a88a681231e37afada659f6e28ff155dd420029",
  "source": "pragma solidity ^0.4.2;\n\ncontract DappToken {\n\t/*\n\t\tWe need\n\t\t- Constructor\n\t\t- function totalSupply() constant returns (uint256 totalSupply)\n\t\t- function balanceOf(address _owner) constant returns (uint256 balance)\n\t*/\n\tuint256 public totalSupply; // public silently creates the getter we need for totalSupply\n\n\tconstructor() public {\n\t\ttotalSupply = 1000000;\n\t}\n}",
  "sourcePath": "/media/ken/DATA/Development/Blockchain/tutorial_dappUniversity/token_sale/contracts/DappToken.sol",
  "compiler": {
    "name": "solc",
    "version": "0.4.24+commit.e67f0147.Emscripten.clang"
  },
  "schemaVersion": "2.0.0",
  "updatedAt": "2018-06-12T01:51:49.654Z"
}